{
  "contractName": "EnhancedMessage",
  "abi": [
    {
      "anonymous": false,
      "inputs": [
        {
          "indexed": false,
          "internalType": "address",
          "name": "sender",
          "type": "address"
        },
        {
          "indexed": false,
          "internalType": "string",
          "name": "content",
          "type": "string"
        },
        {
          "indexed": false,
          "internalType": "uint256",
          "name": "timestamp",
          "type": "uint256"
        }
      ],
      "name": "MessageAdded",
      "type": "event"
    },
    {
      "anonymous": false,
      "inputs": [
        {
          "indexed": false,
          "internalType": "address",
          "name": "recipient",
          "type": "address"
        },
        {
          "indexed": false,
          "internalType": "uint256",
          "name": "amount",
          "type": "uint256"
        }
      ],
      "name": "TokensAwarded",
      "type": "event"
    },
    {
      "inputs": [
        {
          "internalType": "uint256",
          "name": "",
          "type": "uint256"
        }
      ],
      "name": "messages",
      "outputs": [
        {
          "internalType": "address",
          "name": "sender",
          "type": "address"
        },
        {
          "internalType": "string",
          "name": "content",
          "type": "string"
        },
        {
          "internalType": "uint256",
          "name": "timestamp",
          "type": "uint256"
        }
      ],
      "stateMutability": "view",
      "type": "function",
      "constant": true
    },
    {
      "inputs": [
        {
          "internalType": "address",
          "name": "",
          "type": "address"
        }
      ],
      "name": "tokenBalance",
      "outputs": [
        {
          "internalType": "uint256",
          "name": "",
          "type": "uint256"
        }
      ],
      "stateMutability": "view",
      "type": "function",
      "constant": true
    },
    {
      "inputs": [
        {
          "internalType": "string",
          "name": "_content",
          "type": "string"
        }
      ],
      "name": "addMessage",
      "outputs": [],
      "stateMutability": "nonpayable",
      "type": "function"
    },
    {
      "inputs": [],
      "name": "getAllMessages",
      "outputs": [
        {
          "components": [
            {
              "internalType": "address",
              "name": "sender",
              "type": "address"
            },
            {
              "internalType": "string",
              "name": "content",
              "type": "string"
            },
            {
              "internalType": "uint256",
              "name": "timestamp",
              "type": "uint256"
            }
          ],
          "internalType": "struct EnhancedMessage.Message[]",
          "name": "",
          "type": "tuple[]"
        }
      ],
      "stateMutability": "view",
      "type": "function",
      "constant": true
    },
    {
      "inputs": [],
      "name": "getMessageCount",
      "outputs": [
        {
          "internalType": "uint256",
          "name": "",
          "type": "uint256"
        }
      ],
      "stateMutability": "view",
      "type": "function",
      "constant": true
    },
    {
      "inputs": [
        {
          "internalType": "address",
          "name": "_account",
          "type": "address"
        }
      ],
      "name": "getTokenBalance",
      "outputs": [
        {
          "internalType": "uint256",
          "name": "",
          "type": "uint256"
        }
      ],
      "stateMutability": "view",
      "type": "function",
      "constant": true
    }
  ],
  "bytecode": "0x608060405234801561001057600080fd5b50610c5b806100206000396000f3fe608060405234801561001057600080fd5b50600436106100625760003560e01c80630d80fefd1461006757806331933916146100995780633aecd0e3146100b757806353f5e380146100e75780636a226a4914610105578063eedc966a14610121575b600080fd5b610081600480360381019061007c9190610738565b610151565b604051610090939291906108e8565b60405180910390f35b6100a1610233565b6040516100ae9190610971565b60405180910390f35b6100d160048036038101906100cc91906106ce565b61023f565b6040516100de9190610971565b60405180910390f35b6100ef610288565b6040516100fc919061094f565b60405180910390f35b61011f600480360381019061011a91906106f7565b6103d9565b005b61013b600480360381019061013691906106ce565b6104ee565b6040516101489190610971565b60405180910390f35b6000818154811061016157600080fd5b90600052602060002090600302016000915090508060000160009054906101000a900473ffffffffffffffffffffffffffffffffffffffff16908060010180546101aa90610b27565b80601f01602080910402602001604051908101604052809291908181526020018280546101d690610b27565b80156102235780601f106101f857610100808354040283529160200191610223565b820191906000526020600020905b81548152906001019060200180831161020657829003601f168201915b5050505050908060020154905083565b60008080549050905090565b6000600160008373ffffffffffffffffffffffffffffffffffffffff1673ffffffffffffffffffffffffffffffffffffffff168152602001908152602001600020549050919050565b60606000805480602002602001604051908101604052809291908181526020016000905b828210156103d057838290600052602060002090600302016040518060600160405290816000820160009054906101000a900473ffffffffffffffffffffffffffffffffffffffff1673ffffffffffffffffffffffffffffffffffffffff1673ffffffffffffffffffffffffffffffffffffffff16815260200160018201805461033590610b27565b80601f016020809104026020016040519081016040528092919081815260200182805461036190610b27565b80156103ae5780601f10610383576101008083540402835291602001916103ae565b820191906000526020600020905b81548152906001019060200180831161039157829003601f168201915b50505050508152602001600282015481525050815260200190600101906102ac565b50505050905090565b600060405180606001604052803373ffffffffffffffffffffffffffffffffffffffff16815260200183815260200142815250908060018154018082558091505060019003906000526020600020906003020160009091909190915060008201518160000160006101000a81548173ffffffffffffffffffffffffffffffffffffffff021916908373ffffffffffffffffffffffffffffffffffffffff1602179055506020820151816001019080519060200190610498929190610599565b506040820151816002015550507f94bdb93b50aad3705cb01458762a1c8d39d1e0927a128a68db537b848c925dbe3382426040516104d8939291906108e8565b60405180910390a16104eb336001610506565b50565b60016020528060005260406000206000915090505481565b80600160008473ffffffffffffffffffffffffffffffffffffffff1673ffffffffffffffffffffffffffffffffffffffff16815260200190815260200160002060008282546105559190610a53565b925050819055507fca0c05bc2d37fa8afaa7b8200bb281ba49ac03bf601026fe5731564c2a662e8e828260405161058d929190610926565b60405180910390a15050565b8280546105a590610b27565b90600052602060002090601f0160209004810192826105c7576000855561060e565b82601f106105e057805160ff191683800117855561060e565b8280016001018555821561060e579182015b8281111561060d5782518255916020019190600101906105f2565b5b50905061061b919061061f565b5090565b5b80821115610638576000816000905550600101610620565b5090565b600061064f61064a846109bd565b61098c565b90508281526020810184848401111561066757600080fd5b610672848285610ae5565b509392505050565b60008135905061068981610bf7565b92915050565b600082601f8301126106a057600080fd5b81356106b084826020860161063c565b91505092915050565b6000813590506106c881610c0e565b92915050565b6000602082840312156106e057600080fd5b60006106ee8482850161067a565b91505092915050565b60006020828403121561070957600080fd5b600082013567ffffffffffffffff81111561072357600080fd5b61072f8482850161068f565b91505092915050565b60006020828403121561074a57600080fd5b6000610758848285016106b9565b91505092915050565b600061076d838361087a565b905092915050565b61077e81610aa9565b82525050565b61078d81610aa9565b82525050565b600061079e826109fd565b6107a88185610a20565b9350836020820285016107ba856109ed565b8060005b858110156107f657848403895281516107d78582610761565b94506107e283610a13565b925060208a019950506001810190506107be565b50829750879550505050505092915050565b600061081382610a08565b61081d8185610a31565b935061082d818560208601610af4565b61083681610be6565b840191505092915050565b600061084c82610a08565b6108568185610a42565b9350610866818560208601610af4565b61086f81610be6565b840191505092915050565b60006060830160008301516108926000860182610775565b50602083015184820360208601526108aa8282610808565b91505060408301516108bf60408601826108ca565b508091505092915050565b6108d381610adb565b82525050565b6108e281610adb565b82525050565b60006060820190506108fd6000830186610784565b818103602083015261090f8185610841565b905061091e60408301846108d9565b949350505050565b600060408201905061093b6000830185610784565b61094860208301846108d9565b9392505050565b600060208201905081810360008301526109698184610793565b905092915050565b600060208201905061098660008301846108d9565b92915050565b6000604051905081810181811067ffffffffffffffff821117156109b3576109b2610bb7565b5b8060405250919050565b600067ffffffffffffffff8211156109d8576109d7610bb7565b5b601f19601f8301169050602081019050919050565b6000819050602082019050919050565b600081519050919050565b600081519050919050565b6000602082019050919050565b600082825260208201905092915050565b600082825260208201905092915050565b600082825260208201905092915050565b6000610a5e82610adb565b9150610a6983610adb565b9250827fffffffffffffffffffffffffffffffffffffffffffffffffffffffffffffffff03821115610a9e57610a9d610b59565b5b828201905092915050565b6000610ab482610abb565b9050919050565b600073ffffffffffffffffffffffffffffffffffffffff82169050919050565b6000819050919050565b82818337600083830152505050565b60005b83811015610b12578082015181840152602081019050610af7565b83811115610b21576000848401525b50505050565b60006002820490506001821680610b3f57607f821691505b60208210811415610b5357610b52610b88565b5b50919050565b7f4e487b7100000000000000000000000000000000000000000000000000000000600052601160045260246000fd5b7f4e487b7100000000000000000000000000000000000000000000000000000000600052602260045260246000fd5b7f4e487b7100000000000000000000000000000000000000000000000000000000600052604160045260246000fd5b6000601f19601f8301169050919050565b610c0081610aa9565b8114610c0b57600080fd5b50565b610c1781610adb565b8114610c2257600080fd5b5056fea26469706673582212207b618929ba54f08813b8cb4a651e5e08ac8a9199ec38fb7f1d94ea897dff137964736f6c63430008000033",
  "immutableReferences": {},
  "source": "// SPDX-License-Identifier: MIT\npragma solidity ^0.8.0;\n\ncontract EnhancedMessage {\n    struct Message {\n        address sender;\n        string content;\n        uint256 timestamp;\n    }\n\n    Message[] public messages;\n    mapping(address => uint256) public tokenBalance;\n\n    event MessageAdded(address sender, string content, uint256 timestamp);\n    event TokensAwarded(address recipient, uint256 amount);\n\n    function addMessage(string memory _content) public {\n        messages.push(Message(msg.sender, _content, block.timestamp));\n        emit MessageAdded(msg.sender, _content, block.timestamp);\n        \n        // Award tokens for adding a message\n        awardTokens(msg.sender, 1);\n    }\n\n    function getAllMessages() public view returns (Message[] memory) {\n        return messages;\n    }\n\n    function getMessageCount() public view returns (uint256) {\n        return messages.length;\n    }\n\n    function awardTokens(address _recipient, uint256 _amount) internal {\n        tokenBalance[_recipient] += _amount;\n        emit TokensAwarded(_recipient, _amount);\n    }\n\n    function getTokenBalance(address _account) public view returns (uint256) {\n        return tokenBalance[_account];\n    }\n}",
  "sourcePath": "/mnt/c/Sushil-sahani/Blockchain/todo-app/contracts/EnhancedMessage.sol",
  "compiler": {
    "name": "solc",
    "version": "0.8.0+commit.c7dfd78e.Emscripten.clang"
  },
  "schemaVersion": "3.4.16",
  "updatedAt": "2024-09-09T18:54:28.651Z",
  "networkType": "ethereum",
  "devdoc": {
    "kind": "dev",
    "methods": {},
    "version": 1
  },
  "userdoc": {
    "kind": "user",
    "methods": {},
    "version": 1
  }
}